:020000040800F2
:1000000088B40020E9030008357600089D6F0008D9
:1000100031760008B5400008958200080000000015
:10002000000000000000000000000000290300089C
:10003000534200080000000085030008ED77000827
:100040000304000803040008030400080304000874
:1000500003040008030400085542000803040008D4
:1000600003040008794200088942000803040008DC
:10007000F9400008030400080941000803040008CF
:100080000304000803040008030400080304000834
:10009000B9400008C9400008030400080304000830
:1000A0000304000803040008030400080304000814
:1000B000CD780008030400080304000803040008C6
:1000C00003040008030400080304000803040008F4
:1000D0000304000861820008030400087582000818
:1000E0006542000803040008030400080304000834
:1000F000ED780008DD780008030400080304000818
:1001000003040008030400080304000803040008B3
:1001100003040008030400080304000803040008A3
:1001200003040008194100082941000803040008DD
:100130000304000803040008030400080304000883
:10014000D9400008E940000803040008030400083F
:1001500003040008394100080304000885820008F0
:100160000304000803040008030400080304000853
:100170000304000803040008030400080000000052
:100180000304000803040008030400080304000833
:100190000304000803040008030400080304000823
:1001A00000000000000000000304000800F002F856
:1001B00000F0ABF80AA090E8000C82448344AAF156
:1001C0000107DA4501D100F0A0F8AFF2090EBAE854
:1001D0000F0013F0010F18BFFB1A43F0010318477B
:1001E000ECDF00000CE000000A4410F8014B14F0B2
:1001F0000F0508BF10F8015B240908BF10F8014B78
:100200006D1E05D010F8013B6D1E01F8013BF9D1C0
:10021000641E03D0641E01F8015BFBD19142E4D35C
:10022000704700000023002400250026103A28BF54
:1002300078C1FBD8520728BF30C148BF0B60704758
:100240006E2900F0F386702901F0258066290DF0F3
:10025000938365290DF0908367290DF08D836129C3
:100260000DF08C8303681B0A28BF41F080016929C7
:1002700000F08E81642900F08B81752900F088815F
:100280006F2900F0B287782900F0F187E92900F0A2
:100290004D87E42900F04A87F52900F04787EF29C8
:1002A00000F0AF87F82900F0F0870368DB0928BF6A
:1002B00041F08001632901F0ED87732901F0F28795
:1002C000E32901F0FD87F32902F002800020704746
:1002D0001FB50DF044FB9DE8030000F07FFB01F02B
:1002E000EBFB0400002000210CF0B2FA401C60601F
:1002F000002000210CF0C2FAE06000F02BFB1FBDD3
:1003000010B5002000F032FC10BD00F0FBFD1146DE
:10031000FFF7DEFF0AF04AFA01F02EFB03B4FFF705
:10032000EFFF03BC0AF08AF92C4B19680868B0E8A3
:10033000F04F80F30988BFF36F8F4FF0000080F318
:10034000118870470000000008480068006880F3CA
:1003500008884FF0000080F3148862B661B6BFF3DE
:100360004F8FBFF36F8F00DF00BF00BF08ED00E0CD
:10037000DFF80C00016841F470010160704700BFB4
:1003800088ED00E0EFF30980BFF36F8F134B1A681D
:100390001EF0100F08BF20ED108A20E9F04F10600A
:1003A00009B44FF0500080F31188BFF34F8FBFF3B3
:1003B0006F8F0BF049FB4FF0000080F3118809BCF0
:1003C00019680868B0E8F04F1EF0100F08BFB0ECD5
:1003D000108A80F30988BFF36F8F70477000002088
:1003E000EFF305807047000009488047094800473F
:1003F000FEE7FEE7FEE7FEE7FEE7FEE7FEE7FEE7D5
:10040000FEE7FEE704480549054A064B7047000031
:10041000B9780008AD0100088854002088B4002095
:100420008874002088740020704770B5064600F07C
:10043000B5FA056806F10B0020F00704B4429CBF32
:10044000002070BD2B466A68BAB11068A04210D374
:1004500004F1080188423CBF5068586007D35168D6
:10046000101941601168091B016058601460101D6B
:1004700070BD13465268002AE7D12146284600F095
:1004800099FA0028DED170BD53EA020C00F06980B1
:100490002DE9F04B4FF00006002B1FBFB3FA83F598
:1004A00003FA05F424FA05F65E4012BF1643B2FAC9
:1004B00082F502FA05F4C5F120051EBF22FA05FCFB
:1004C00044EA0C04203556EA044C4FEA144418BFA1
:1004D000641C4FF000084FF00009904271EB030CD0
:1004E00039D3002919BFB1FA81F701FA07F6B0FA3A
:1004F00080F700FA07F6C7F120071EBF20FA07FCB5
:1005000046EA0C062037B6FBF4FCA7EB0507103FC4
:1005100007F01F0BCBF120060CFA0BFB2CFA06F6AA
:1005200044BFB3460026202FA4BF5E464FF0000B09
:100530005BEA060C08BF4FF0010B19EB0B09ABFB94
:10054000027C48EB0608C01B06FB02CC0BFB03CC6D
:1005500071EB0C01C1E70B46024641464846BDE837
:10056000F08B13B54FF000004FF00001AFF30080A7
:10057000BDE81C40704700000FB4044910B503AA41
:10058000029800F0E1FA10BC5DF814FB6000002056
:100590002DE9F0410646002410687529314616A55C
:1005A00010D000F008FD002802DA404213A507E051
:1005B00031688A0701D512A502E0490704D511A5C3
:1005C000012401E000F000FD00210A2206F12407C9
:1005D00009E0B0FBF2FCB0FBF2F302FB1C00303090
:1005E00078541846491C0028F3D123462A46304641
:1005F000BDE8F04100F04FBA000000002D000000FF
:100600002B000000200000002DE9F05F8946044621
:100610004FF0000ADFF874B1FB44C0F820A0204678
:10062000E1688847002874D0252806D0D4E9012144
:100630009047206A401C2062F1E700265F46204672
:10064000E16888472028054607DB312D05D2781957
:1006500010F8200C08B10643F1E7B00701D526F0E9
:100660000406C4F81CA00027C4F818A02A2D09D03D
:10067000284609F0DBFF38B304EB8708303DC8F8A3
:10068000185019E059F8041B204604EB87029161C9
:10069000E1688847012F054618D1E069002820DA73
:1006A00026F020061DE0D8F8180000EB800005EBCE
:1006B00040003038C8F818002046E16888470546F1
:1006C00009F0B4FF0028EED1012F0AD02E2D08D159
:1006D0002046E16888477F1C0546022F46F0200629
:1006E000C4DBA069002803DA404246F00106A0619D
:1006F000F00701D026F010066C2D0BD0682D09D024
:100700004C2D39D06A2D35D0742D35D07A2D33D07B
:1007100016E038E0E1682F4620468847B842054693
:1007200009D16C2F26D04FF48060E1680643204643
:100730008847054604E06C2F1AD04FF480700643BA
:100740000DB3A5F14100192802D8203546F4006602
:100750004A462946204626604E46FFF771FD80B185
:1007600001280BD0F61D26F0070000F1080956E716
:100770004020E4E78020D8E70020D6E706F104090E
:100780004DE7284652E7206ABDE8F09FF8D4000004
:100790002DE9F041074615460E461020FFF745FEAD
:1007A00004000AD06760C4E9026500F0FBF8016844
:1007B000216004600020BDE8F0810120FBE7032AEE
:1007C00040F2308010F0030C00F0158011F8013B6E
:1007D000BCF1020F624498BF11F801CB00F8013B55
:1007E00038BF11F8013BA2F1040298BF00F801CB19
:1007F00038BF00F8013B11F0030300F02580083AF0
:10080000C0F0088051F8043B083A51F804CBA0E846
:100810000810F5E7121D5CBF51F8043B40F8043B9B
:10082000AFF30080D20724BF11F8013B11F801CBD0
:1008300048BF11F8012B24BF00F8013B00F801CBA1
:1008400048BF00F8012B704710B5203AC0F00B806C
:10085000B1E81850203AA0E81850B1E81850A0E8C4
:100860001850BFF4F5AF5FEA027C24BFB1E818501E
:10087000A0E8185044BF18C918C0BDE810405FEA8E
:10088000827C24BF51F8043B40F8043B08BF70470A
:10089000D20728BF31F8023B48BF11F8012B28BF0F
:1008A00020F8023B48BF00F8012B704702F0FF031D
:1008B00043EA032242EA024200F002B84FF000028B
:1008C0000429C0F0128010F0030C00F01B80CCF162
:1008D000040CBCF1020F18BF00F8012BA8BF20F8D0
:1008E000022BA1EB0C0100F00DB85FEAC17C24BF24
:1008F00000F8012B00F8012B48BF00F8012B7047CE
:100900004FF0000200B5134694469646203922BFA8
:10091000A0E80C50A0E80C50B1F12001BFF4F7AFF3
:10092000090728BFA0E80C5048BF0CC05DF804EBD5
:10093000890028BF40F8042B08BF704748BF20F843
:10094000022B11F0804F18BF00F8012B7047704741
:100950007047704770B5064C7C44064D7D4403E0FB
:10096000206820448047241DAC42F9D170BD0000AE
:10097000DCD9000000DA00002DE9F04117460E46F0
:10098000054633B107FB0354E41B2046B047A5429C
:10099000FAD1A5F10800BDE8F08170470048704722
:1009A000F0530020004870472054002070477047E3
:1009B0007047704738B504460A4600206946AFF3D1
:1009C0000080002808BF38BD02460099204600F08C
:1009D00039F9012038BD012000F0B7B9F8B5AFF3FF
:1009E0000080054600200C46102000BF0646A819CE
:1009F000A0420DD9324669460020AFF300800700BF
:100A000008BF00F0A2F90098A04218BF0546C4191B
:100A1000FFF7C4FF05600746F01D20F007004619E8
:100A2000284600F00AF8B44208BFF8BDA21B3146C0
:100A30003868BDE8F84000F005B900210160C0E960
:100A4000011070471020704770B50446051FFFF76E
:100A5000A5FF0068002C14BF446870BD002C18BFAF
:100A6000AC423CBF20466468F8D301680A18AA4229
:100A700018BF456003D12A68054611440160286803
:100A80004119A1421CBF6C6070BD6168696021683A
:100A90000844286070BD2DE9F0470D4699469246FE
:100AA000044600F124080168880604D5E06921F0B5
:100AB0001001216000E00120A84201DD471B00E099
:100AC0000027A1697A1902EB0900081AA0612078B1
:100AD000C00602D4204600F047FA002608E0D4E918
:100AE00001211AF806009047206A401C761C2062FB
:100AF0004E45F4DB2078C0060AD5204600F034FAD3
:100B000006E0D4E9012130209047206A401C206291
:100B1000381EA7F10107F4DC07E0D4E9012118F839
:100B200005009047206A401C2062281EA5F101059F
:100B3000F3DC204600F02EFA2078000602D50220D1
:100B4000BDE8F0870120FBE7074B70B50D467B44FD
:100B500000F0BBF80446284600F0E8F810B14FF06A
:100B6000FF3070BD204670BDAF9B00002DE9F04105
:100B70000646FFF717FF8046454613E016B1E068CA
:100B8000B0420ED120682860D4E90101D8F8007085
:100B900088472046FFF758FFD8F80000B842EBD14D
:100BA00000E025462C68002CE8D1BDE8F081431A0E
:100BB00028BF9A427FF603AE032A1044114440F244
:100BC000268010F0030F1EBF11F8013D521E00F8E1
:100BD000013D10F0030F7FF4F6AF11F0030300F0B6
:100BE0002881083AC0F00B8051F8043D083A51F8CA
:100BF00004CD40F8043D40F804CDFFF7F3BF121DCB
:100C00005CBF51F8043D40F8043DAFF30080D207CB
:100C100024BF11F8013D11F801CD48BF11F8012C96
:100C200024BF00F8013D00F801CD48BF00F8012CB9
:100C30007047000000487047E853002000487047A4
:100C40001C540020034640688C46002818BF884288
:100C50003CBF03464068F8D318681844884207D060
:100C60000CF1030020F00700001D411A521A014642
:100C7000081D0A60FFF7E8BE0FB4014610B504AACC
:100C80000398FFF761FF10BC5DF814FB7CB51D46AF
:100C900016460C00009001D02044401E074B7B44B8
:100CA0002A4669460190304600F00FF805461CB10F
:100CB0000020694600F0CEF928467CBDBD03000047
:100CC00001694A1C02610878704700B58FB0CDE910
:100CD00001310021059105497944CDE90310114600
:100CE0006846FFF791FC0FB000BD0000E5FFFFFF75
:100CF0000FB400B58DB010A9099000910B904FF082
:100D0000FF300A9000200C90064878440690064870
:100D100078446A4607900F9909A800F08FFC0DB03F
:100D20005DF814FB4F09000067090000007B00F02C
:100D30008000704710B5002000F02CFEFFF7E0FAAD
:100D4000BDE81040012009F079BC10B500F02AFE82
:100D5000BDE8104000F019BE40EA0103024630B57C
:100D60009B0710D14FF0013400E008C208C91D1BD9
:100D70009D4315EAC41FF8D013F0FF0102F8011BD0
:100D80000DD01B0AF8E711F8013B002B02F8013BDC
:100D900005D011F8013B002B02F8013BF3D130BD27
:100DA0000022CBB210F8011B994200D1421E00294B
:100DB000F8D11046704710B5431C02E010F8011B33
:100DC00071B18107FAD14FF0013202C88C1A8C43FD
:100DD00014EAC211F9D0C01A0A0603D0C01E10BD11
:100DE000C01A10BD0A0401D0801E10BD0902FCD03B
:100DF000401E10BD421E12F8013F002BFBD111F81E
:100E0000013B002B02F8013BF9D17047431A28BF80
:100E10009A427FF619AD104410F0030F11441EBF23
:100E200011F8013D521E00F8013D10F0030F7FF450
:100E3000F6AF103AC0F00A8010B531E91850103AF8
:100E400020E91850BFF4F9AFBDE81040530724BFA4
:100E500031E9081020E9081044BF51F8043D40F87A
:100E6000043D12F0030F08BF7047D20728BF31F8C6
:100E7000023D48BF11F8012C28BF20F8023D48BFB1
:100E800000F8012C704700F007B810B509F056F9CA
:100E9000BDE8104009F0A2B810B500F00EF80169E5
:100EA00019B100220261884701E080688047FFF79E
:100EB00041FF000010B5FFF73DFF70B500F050F89E
:100EC00004680546A4B92020FFF7AFFA040011D04A
:100ED000094900202C60C4E900010849A160207381
:100EE000206160610649A06109B100F0C7FDE061C1
:100EF000204670BDFFF71EFF00000000B50E000881
:100F0000000000007546FFF795FEAE4605006946F5
:100F1000534620F00700854618B020B5FFF772FA57
:100F2000BDE820404FF000064FF000074FF00008EA
:100F30004FF0000B21F00701AC46ACE8C009ACE86B
:100F4000C009ACE8C009ACE8C0098D467047000094
:100F500010B500F0B1FD001D10BD00BFF5B80000D8
:100F6000004870472454002070B504468569006825
:100F7000C10601D5302600E02026C00707D070BD8D
:100F8000D4E9012130469047206A401C20626D1E42
:100F9000F6D570BD70B5044685690078C00707D1E5
:100FA00070BDD4E9012120209047206A401C2062B6
:100FB0006D1EF6D570BD09684A0501D540B270476F
:100FC000C905FCD500B2704709684A0501D5C0B211
:100FD0007047C905FCD580B2704770B50C46054610
:100FE000012A05D02878800600D5EA69002302E0AE
:100FF000012305E05B1C934202D2E05C0028F9D19A
:10100000A869E618C01AA861286A18442862284608
:10101000FFF7AAFF04E0D5E9012114F8010B90477E
:10102000B442F8D32846FFF7B5FF70BD11680268D7
:10103000006A530501D508700AE0D30501D5088080
:1010400006E0130603D5C217C1E9000200E00860FC
:10105000012070470A6802F8010B0A607047D1E965
:1010600000239A4202D2531C0B601070704700009C
:101070002DE9FF5F15468A460446DFF8AC80F84448
:101080000027D8E900103E46CDE9001010E03AF8FC
:1010900016106A4602A801F06DFE411C07D02178A7
:1010A000890603D5E269391891420DD80744761CA8
:1010B0002078800602D5E069B84205DDAE42E6DB65
:1010C0003AF816000028E2D1A069C01BA0612046B2
:1010D000FFF74AFFD8E90010CDE90010002017E023
:1010E0003AF818106A4602A801F044FEB0F1FF3F3A
:1010F00081460BD000250DF1080B05E0D4E9012154
:101100001BF8050090476D1C4D45F7D308F1010011
:10111000B0428046E4DB206A384420622046FFF774
:1011200039FFBDE8FF9F000002CD00002DE9F0412E
:101130008046D21D22F007020025D2E90002F529DF
:1011400015A614D0011E72F1000106DA0023D0EBBF
:10115000030063EB020211A608E0D8F800108B0729
:1011600001D50FA602E0490701D50EA601251146BB
:10117000002408F1240704E000F0A6FC30323A55C0
:10118000641C50EA0102F7D12B4632462146404604
:10119000BDE8F041FFF77FBC000000002D0000001B
:1011A0002B0000002000000030B4002100F12404D6
:1011B00008E002F00705D208303542EA4372DB0846
:1011C0006554491C52EA0305F3D10468002310A2B8
:1011D000250707D5A40600D421B1C46901230DA2B7
:1011E000641EC46130BCFFF756BC10B504462146EE
:1011F0001068FFF7E9FE02462046BDE810400023D4
:10120000D2E7D21D22F00701D1E90023CCE700008C
:101210000000000030000000F0B40D460188090510
:1012200002D5214C7C4402E01F4C7C440E3400214A
:1012300000F1240608E002F00F071209E75D42EA18
:1012400003721B097754491C52EA0307F3D1027851
:101250000023120704D5702D06D009B102231134E2
:101260002246F0BCFFF717BC01231034F8E770B535
:1012700004460D4621461068FFF7A6FE02462946A1
:101280002046BDE870400023C6E7D21D22F00703C8
:10129000D3E90023C0E70368126843F0200303602A
:1012A0000823C3610023B7E764CB00002DE9FF4F9B
:1012B0001C4691464FF0FF3581B000218A46884692
:1012C000D4E90167A16902986D1C8847216A8346A9
:1012D00088470028F6D1BBF1FF3F0CD0002F26F441
:1012E000C0661ADD700615D5BBF12B0F0AD0BBF115
:1012F0002D0F0FD104E04FF0FF3005B0BDE8F08FA7
:1013000046F48066A16902986D1C88477F1E83465B
:10131000002F02DDBBF1300F03D0B9F1000F2AD04E
:1013200025E0A1696D1C02987F1E46F4007688476F
:10133000002F834605DDBBF1780F06D0BBF1580FB7
:1013400003D0B9F1000F10D011E0B9F1000F02D0B5
:10135000B9F1100F0BD1A1696D1C02987F1E26F404
:10136000007688478346102000E0082081464FEA37
:10137000E970009017E00A20F8E74346AAFB092825
:10138000DDF800C07F1E03FB098046F4007605F1FE
:1013900001050AFB0C0112EB0B0A029841EBEB78FA
:1013A000A16988478346002F06DD4946584600F06C
:1013B00093FF5FEA000BE0D5E16902988847B0052A
:1013C00002D46FF0010098E7F00718D1700610D52D
:1013D0005146700505D50023D1EB030163EB0802EC
:1013E00000E042462068031D23600068C0E9001247
:1013F00005E02068011D21600068C0E900A82846BA
:101400007BE72DE9FF5F1D464FF0FF3B91464FF014
:1014100000085F46D5E90146A96901987F1C884705
:10142000296A824688470028F6D1BAF1FF3F0CD0DE
:10143000002E24F4C06419DD600614D5BAF12B0F18
:1014400009D0BAF12D0F0ED103E0584604B0BDE823
:10145000F09F44F48064A96901987F1C8847761E38
:101460008246002E02DDBAF1300F03D0B9F1000F31
:1014700026D032E0A969761E01987F1C44F40074DE
:101480008847002E824605DDBAF1780F06D0BAF102
:10149000580F03D0B9F1000F10D01EE0B9F1000FC2
:1014A00002D0B9F1100F18D1A969761E01987F1CDE
:1014B00024F4007488478246102002E0082000E0EF
:1014C0000A20814609E0A96908FB0908761E0198EF
:1014D0007F1C44F4007488478246002E05DD49468F
:1014E000504600F0F9FE0028EDDAE96901988847D6
:1014F000A00502D46FF00100A8E7E00725D160063F
:1015000013D5600502D5C8F1000000E04046296807
:101510000A1D2A600968220501D5087015E0220716
:1015200001D5088011E008600FE02868011D2960DE
:101530000068210502D580F8008006E0210702D569
:10154000A0F8008001E0C0F8008038467EE72DE971
:10155000FF5F4FF000089946144646469169D2E96C
:1015600001A7DDF838B001988847054659EA0B0015
:1015700005D009E0A1690198761C88470546216AD3
:10158000284688470028F5D1681C03D05FEACA7056
:1015900005D015E04FF0FF3004B0BDE8F09F2068A3
:1015A000011D2160D0F800800AE05FEACA7001D115
:1015B00008F8015BA169761C01987F1E88470546E3
:1015C000002F1ADD681C18D0B9F1000F0DD0E817F4
:1015D00005EBD060421120F01F0059F822102A1AA2
:1015E000012090400142E0D107E0BBF1000FDCD1C7
:1015F0002846216A88470028D7D0E16901988847A2
:10160000BBF1000F07D1002E05DD5FEACA7002D1E1
:10161000002188F80010A068B84203DDBBF1000F7C
:1016200003D017B16FF00100B6E73046B4E7000011
:10163000026811441378016018467047D16005496B
:1016400079445161044979441162002111611146C4
:1016500000F050BEEDFFFFFF09050000426842B1F7
:10166000016811F8013B23B1521EC0E9001218466F
:1016700070470121C160881E704742685AB1C36833
:10168000016843B983688B4205D0491E521CC0E9EA
:101690000012002070474FF0FF3070472DE9FF4FD8
:1016A0004FF000089A461446C146464683B0D2E938
:1016B00001B7CDF80080CDF804809169049888477F
:1016C000109905465AEA010005D009E0A16904987D
:1016D000761C88470546216A284688470028F5D1A8
:1016E000681C03D05FEACB7005D02AE04FF0FF30D2
:1016F00007B0BDE8F08F2068011D2160D0F80080A0
:101700001FE002A86A46E9B201F016FB411C07D0AF
:10171000801C09D04FF000095FEACB7007D00AE0C7
:10172000E169049888473EE04FF0010904E0BDF804
:10173000081028F8021B7F1EA1690498761C8847B0
:101740000546002F1ADD681C18D0BAF1000F0DD025
:10175000E81705EBD060421120F01F005AF8221064
:101760002A1A012090400142CBD107E010980028AE
:10177000C7D12846216A88470028C2D0E169049869
:101780008847B9F1000F0ED1109830B9002E04DD52
:101790005FEACB7001D1A8F80000A068B84202DD72
:1017A000109818B117B16FF00100A1E730469FE71C
:1017B0002DE9FF4F4FF000089B461446454683B085
:1017C000D2E90196CDF80080CDF804809169DDF86A
:1017D00048A00498884707465BEA0A0005D009E05C
:1017E000A16904986D1C88470746216A38468847D6
:1017F0000028F5D1781C03D05FEAC97005D01BE042
:101800004FF0FF3007B0BDE8F08F2068011D216068
:10181000D0F8008010E05FEAC97007D16A46404600
:10182000B9B201F0A7FA411C31D08044A1696D1C06
:101830000498761E88470746002E14DD781C12D0C7
:10184000BBF1000007D03B46DDE9101201F088F93A
:101850000028E0D107E0BAF1000FDCD13846216A58
:1018600088470028D7D0E16904988847BAF1000F6B
:1018700006D1002D04DD5FEAC97001D188F80000AF
:10188000A068B04203DDBAF1000F03D016B16FF0CB
:101890000100B7E72846B5E72DE9FF5F9B461446F0
:1018A00000273D469169D2E90196DDF840A00198F4
:1018B000884780465BEA0A0005D009E0A1690198E3
:1018C0006D1C88478046216A404688470028F5D12C
:1018D000B8F1FF3F03D05FEAC97005D014E04FF0C4
:1018E000FF3004B0BDE8F09F2068011D216007684B
:1018F0000AE05FEAC97001D127F8028BA1696D1C6B
:101900000198761E88478046002E15DDB8F1FF3F0E
:1019100012D0BBF1000007D04346DDE90E1201F002
:101920001FF90028E5D107E0BAF1000FE1D14046E8
:10193000216A88470028DCD0E16901988847BAF11C
:10194000000F05D1002D03DD5FEAC97000D138809A
:10195000A068B04203DDBAF1000F03D016B16FF0FA
:101960000100BEE72846BCE70A460146014801F0EF
:1019700054B900004854002010B50446AFF300806D
:101980002046BDE81040FEF7C9BC002801D008F091
:1019900055BE704710B501F027FABDE81040FFF7BB
:1019A000F4BF000010B5012805D0002103A001F00C
:1019B00001FA012010BD09A1F8E700005349475280
:1019C000544D454D3A204F7574206F66206865610F
:1019D00070206D656D6F7279000000003A204865D7
:1019E0006170206D656D6F727920636F72727570B2
:1019F0007465640001B5FEF7E2FE01BD4FF0013CE5
:101A000050F8042B51F8043B9A4221D1A2EB0C036D
:101A1000934313EACC1317D150F8042B51F8043B2D
:101A20009A4215D1A2EB0C03934313EACC130BD1CA
:101A300050F8042B51F8043B9A4209D1A2EB0C0355
:101A4000934313EACC13DBD04FF00000704700BF84
:101A5000D01A01BAB1FA81F101F0180122FA01F0AD
:101A6000CB40C1F12001DBB2C0B2C01A2CFA01F3A5
:101A7000D11A914311EAC311E6D1704710B58820FD
:101A8000FEF7D3FC002801D00021017010BD802991
:101A900002D808B1017809B100207047012100F88F
:101AA000081B704718B100F10802914201D00020D4
:101AB00070470021017070470048704708540020AB
:101AC00000487047E853002030B5B0F10A024FEAF1
:101AD000900E71F100034EEA817EB0EB0E0061EBD7
:101AE00091014FEA101E4EEA017E10EB0E0041EB11
:101AF00011114FEA102E4EEA016E10EB0E0041EB71
:101B000011214FEA104E4EEA014E10EB0E0041EB50
:101B10001141401841F100014FEAD00040EA417004
:101B20004FEAD10110EB80054FEA810444EA90743A
:101B300044EB01046D1944EB0404521BA3414FF024
:101B4000000348BF0A3200D530BD401C41F10001FE
:101B500030BD10B50446FFF7FBF90068005D00F0EA
:101B6000010010BD70472DE9FF4F0C461E464FF097
:101B7000FF378BB0D2E90001DDF860800A908A4619
:101B8000C1F30A5505B93D46002108464FF0000053
:101B9000BAF1000F00F4400005DA00EB80004FF4CA
:101BA000400101EA50004FEA9059B9F1010F00DD00
:101BB000B9460A9850EA4A000ED044F61050A5F2F1
:101BC000FF3545432F14B8F1000F1ED07542291E72
:101BD0001EDDC9F100021CE0B8F1010F4FF000005A
:101BE00001D0302103E0F24305E02154401CB04213
:101BF000FBDB30460022002121540B99C1F80880FC
:101C0000C1E900200FB0BDE8F08FBD1B6D1CDEE701
:101C10004A4600DA694206A801F040F906AB93E8AB
:101C2000070003AB83E8070050460A9901F0FFFB69
:101C30008DE80700A0F500501F3800900398002D94
:101C40000ADD42F21F014A460844002303A903901B
:101C5000684601F0ABFE09E0A0F500504A461F3887
:101C6000002303A90390684601F0CAFE8DE807002F
:101C70000004000C03D04FF0FF30410800E0104694
:101C8000B8F1000F03D00022009215461EE0751E29
:101C900005D4FFF719FF303262556D1EF9D5B346F2
:101CA0000122084302D000227F1C04E02078302863
:101CB00001D100227F1E002A099784D01DE0112D3A
:101CC00007DAFFF701FF303262556D1C50EA01025E
:101CD000F5D1084302D00098C8B10EE00021681E7B
:101CE00005E0235C625C63542254401E491C81421F
:101CF000F7DBAB46A81B401E0990002004F80B0040
:101D00000B98099AC0F80880C0E9002B7AE71126E1
:101D10004FF0000857E72DE9F04F88460446D21DE2
:101D200022F0070191B0D1E90001CDE90A0108F0E4
:101D3000BEF902460B98C00F01D02D2007E02068A5
:101D4000810701D52B2002E0202101EAC000032AEF
:101D5000099001D0072A05DB03464146204601F0E1
:101D60005DF80BE12078800601D5E06900E00620EF
:101D7000B8F1650F814606D0B8F1660F18D0B8F1FA
:101D8000670F70D131E00020B9F1110F009001DB35
:101D9000112301E009F101030AAA01A90CA8FFF728
:101DA000E2FEDDE90C70002609F10105834647E0FB
:101DB00001204B4600904FF000470AAA01A90CA849
:101DC000FFF7D1FEDDE90DB00C995D46002610B994
:101DD00009F101000D18B9EB050003D4C0F1FF367D
:101DE00009F10105A5EB09002BE0B9F1010F01DABA
:101DF0004FF001090020B9F1110F0090484601DDB4
:101E0000112300E003460AAA01A90CA8FFF7ABFEC4
:101E1000DDE90C704D4600268346207800070AD481
:101E2000AB4500DA5D4601A8012D04DD411911F82A
:101E3000011C302907D04F4502DA17F1040F04DAEC
:101E4000012082460FE06D1EEEE7002F02DCED1B45
:101E50003E4403E0781CA84200DD7D1CB81B00F165
:101E6000010A4FF000472078000703D4AA4501DBA0
:101E70004FF0FF3A0021B7F1004F0DF143088DF804
:101E8000431024D002202B23002F01DA7F422D2380
:101E90000A21021EA0F1010000DC5FB197FBF1FCFA
:101EA00097FBF1F201FB1C7C17460CF1300C08F893
:101EB00001CDEEE7A8F1010003702188090501D5E5
:101EC000452100E06521A0F1010800F8011C0998F6
:101ED0000FA9A1EB0807FF1D00B10120411901EB7B
:101EE000EA70A1693844081A401EA0612078C00633
:101EF00002D42046FFF738F8099828B1D4E9012127
:101F00009047206A401C20622078C00622D52046D7
:101F1000FFF72AF81EE0002E04DBB34502DD01A81E
:101F2000805D00E03020D4E901219047206A401C08
:101F30002062761CAAF101005FEA000A0AD1FFF7CD
:101F4000BBFDC0680168405CD4E901219047206A6C
:101F5000401C2062281EA5F10105DCDC07E0D4E965
:101F6000012118F8010B9047206A401C2062381E9E
:101F7000A7F10107F3DC2046FFF70CF8032011B0AE
:101F800041E600002DE9F04F04460D46D21D22F037
:101F9000070089B0D0E900974846394608F087F82D
:101FA0000246F80F01D02D2307E02068810701D5F4
:101FB0002B2302E0202101EAC0038DF820300BB171
:101FC000012000E00020032A824601D0072A04DB1A
:101FD0002946204600F022FF3FE12078800601D408
:101FE0000D2500E0E569C7F30A560D2D49DA0021F9
:101FF0004FEA175B08464FF00000002F00F4400046
:1020000007DA00EB80004FF4400100EBD07001EAEA
:1020100060008115012901DD4FF0FF3100224FEAF8
:10202000850CBCF1180F06D31346ACF118004FF025
:102030008052C24003E04FF4801323FA0CF30CF1FA
:102040000C0CBCF1200F04D3ACF1200C09FA0CF0FD
:1020500001E007FA0CF000294FF0004801DD18B943
:102060000FE00ED140450CD319EB02095F4121B9B5
:10207000404502D19F4329EA0209BBEB175F00D01C
:10208000761C2088000502D57B48784402E07A4817
:102090007844193808AA302302F80A30037C0AF180
:1020A0000101002E0AF1020A53546A4602DC4FF085
:1020B000300101E04FF031014FF001088DF80010C0
:1020C00002D0A6F2FF3603E059EA470100D06B4E7A
:1020D000002D02DC2178090704D54FF002082E21DB
:1020E0008DF80110C44600210BE0C7F303433F0104
:1020F000C35C491C6D1E02F80830052908F101086F
:1021000001DA002DF1DC00210CE000EB1973491C11
:102110001B786D1E082902F808304FEA091908F1EA
:10212000010801DA002DF0DC21688B0602D516E0EB
:10213000A8F10108E04505DD02EB080313F8013CB6
:10214000302BF5D0B8F1000F09DD02EB080313F8CE
:10215000013C2E2B03D1090701D4A8F10108002D61
:1021600005DD3E2102F808106D1E08F10108407CD3
:10217000002E02F8080008F1010804DA2D2076424A
:1021800002F8080002E02B2002F808000A214FF4B0
:102190007A70864208F101080BDB96FBF0F33033CE
:1021A00002F8083096FBF0F308F1010800FB136613
:1021B00001E0642E0CDB642096FBF0F3303302F870
:1021C000083096FBF0F308F1010800FB136601E00C
:1021D0000A2E06DB96FBF1F0303002F8080008F119
:1021E000010896FBF1F001FB1060303002F80800A6
:1021F000A16908F1010808EB050202EB0A00081AC0
:10220000A0612078C00602D42046FEF7ADFE216A08
:1022100008AE01EB0A00206204E0D4E9012116F8BF
:10222000010B9047BAF1010AF7D22078C00602D517
:102230002046FEF799FE6E4609E016F8010B3E288F
:102240000FD0D4E901219047206A401C2062B8F1E8
:102250000108F2D22046FEF79DFE09B00320BDE83A
:10226000F08F206A2844206203E0D4E90121302065
:1022700090476D1EEBD3F8E739BD000002FCFFFF6D
:1022800010B5436913B1AFF3008001E0FEF7A5FE7E
:10229000012010BD127800F124010A7000224A705A
:1022A0000122EDE711684FF0FF32E9E710B543690D
:1022B00013B1AFF3008001E0FEF7DAFE012010BD9C
:1022C000128800F1240182840022C2840122EDE7F9
:1022D00011684FF0FF32E9E73A2800D2303820F099
:1022E0002002412A01D3A2F13700884201D34FF0E6
:1022F000FF3070472DE9F34F4FF0000A0C46564669
:102300008DB001200C9001F10C000B9062690B98CC
:1023100001219047051E2DD0252D2CD0216A8847FC
:10232000C0B162690B9801219047216A8847002853
:10233000F7D16269411E0B98904700E0761CA169B5
:102340000D988847216A88470028F7D1E1690D98E0
:102350008847DBE7A1690D988847A842074601D165
:10236000761CD3E7E1690D9888477F1C02D1BAF14A
:10237000000F6FD06CE162690B9800273D4639462B
:1023800090472A2804D162690B98012190470125C2
:10239000DFF8D08262690B9801219047A0F13001EB
:1023A0000A290AD24745E5DC07EB870100EB410724
:1023B000303FDFD445F01005ECE7E90601D46FF0BB
:1023C00000476C280AD04C2814D0682815D06A28F9
:1023D0000DD074281CD07A281AD01DE062690B98A1
:1023E000012190476C2802D045F0040514E045F027
:1023F00002050DE045F020050AE062690B98012115
:102400009047682802D045F0080505E045F40065CE
:1024100062690B9801219047C4E9015765283DD0B6
:1024200019DC58287AD00CDC452837D004DC252864
:1024300026D041289ED131E046282FD0472899D177
:102440002CE05B2877D0612828D063287CD06428D2
:1024500023D15AE0F7E06F2848D008DC66281DD069
:1024600067281BD0692821D06E2816D127E0702854
:1024700045D0732868D0752847D078280DD14DE015
:10248000A1690D988847252805463FF469AFE169A1
:102490000D9888476D1C3FF46AAFD9E00D9923462B
:1024A0006A466FF001000BF0CBFAC6E045F0400041
:1024B00023464FF000026060A80736D43EE0E807EC
:1024C0007FF447AF2068011D21600068290501D510
:1024D00006701BE7290701D5068017E7A90703D572
:1024E000F117C0E9006111E706600FE745F0400011
:1024F00023464FF008026060A80716D41EE040F69D
:102500000E0125EA0100606016E045F04000234618
:102510004FF00A026060A80707D40FE045F04000C2
:102520006060A80708D5234610220D996FF00100BE
:10253000FEF7BCFE81E007E0102223460D996FF004
:102540000100FEF75EFF78E04FF0000963284F4678
:10255000C8464B46CB4602D05B2807D039E02079ED
:10256000C00601D40120A060012732E06269D4F8DE
:102570000CB00B98012190475E2807D14FF001095C
:1025800049466269D4F80CB00B989047216939B973
:1025900000210A4603AB43F82120491C0829FADB35
:1025A000D8B3216949B308F1010862690B98012188
:1025B00090475D28F4D1B9F1000F09D0002003A99C
:1025C00051F82020D24341F82020401C0828F7DB96
:1025D00003AB2069002820794FEA40701ED05B468B
:1025E0002246CDF80080CDE901970D9900286FF0C3
:1025F000010020DAFFF750F91FE0C11703AA00EB32
:10260000D1614B1121F01F0102EB8302411A1368C3
:102610000120884003431360C7E719E00D99224663
:1026200000286FF00100009702DAFFF737F804E0A6
:10263000FEF78DFF01E0FFF7BBF800280ADA401C27
:1026400006D10C9820B14FF0FF300FB0BDE8F08FED
:102650005046FAE7E90701D10AF1010A06440020D1
:102660000C9053E6CCCCCC0C2DE9FF4F06468BB03A
:102670000878FF2806D0491C2D2805D000244FF0EB
:10268000000908E000200CE00124F8E709EB8903C9
:10269000491C00EB43090878FF28F7D114B1C9F1B0
:1026A00000008146107800252C46AA4629462D2890
:1026B00001D02B2804D1521C2D2813D00020824693
:1026C0008B461078FF280FD04FF0000C0A21521CC7
:1026D000A5FB017804FB018105FB0C11C5194BEB2F
:1026E0000104EEE70120EAE7002108464FF0000070
:1026F000BAF1000F02D000EB80004008C0F3815710
:10270000012F01DD4FF0FF370E9955EA040009EB68
:1027100001080BD04FF0020918F5FA7F16DA4FEADC
:10272000CA70002F706008DD012007E04FEACA7010
:10273000C6E900B00FB0BDE8F08F00203060FFF7B1
:10274000BFF9C0F800901821084616E0B8F5FA7FE6
:1027500018DD002F02DAF748784401E0F6487844A3
:10276000D0E90010C6E9001040EACA707060FFF7B7
:10277000A7F9C0F80090142108460FB0BDE8F04F4B
:102780000BF0F7B8002108464FF00000B8F1000147
:10279000099002DAC7F1000200E03A4601DAC8F116
:1027A000000106A800F07AFB06AB93E8070003AB34
:1027B00083E8070044F23E005BEA040100905846BB
:1027C00004D144F21E012C465D460091210C0904FF
:1027D000014306D10099240444EA15442D0410391C
:1027E000009104F07F41014306D10099240244EA9C
:1027F00015642D020839009104F07041014306D19F
:102800000099240144EA15742D01091F009104F078
:102810004041014306D10099A40044EA9574AD00FB
:10282000891E009104F00041084304D100986D19FD
:102830006441401E00904FF001033A466846B8F1EB
:10284000000FCDE9014503A902DD01F0EEF801E03A
:1028500001F0C1F8BAF1000F04460D4601D084F032
:102860000044002108464FF00000099940F2FF772C
:10287000484010F00C0F07D124F00040284303D04B
:10288000C4F30A50B84212D1FFF71AF9C0F8009009
:10289000C4F30A50B8420AD1A8487844D0E90010DD
:1028A000C6E9001004F000410843706042E7C6E941
:1028B00000543FE72DE9FF4F1F464FF0000A4FF04D
:1028C000FF38454691B0D7E90146CDF83CA0FFF767
:1028D000F3F8C0680168405C1090B96912986D1CEB
:1028E0008847396A814688470028F6D1B9F1FF3F09
:1028F0000AD0002E24F4D06411DDB9F12B0F08D0DA
:10290000B9F12D0F0BD102E0404615B013E744F4A6
:102910008064B96912986D1C8847761E81466005EF
:1029200004A901D52D2000E02B20002E01F1010B80
:102930000DF130088DF810003FDDB9F1690F08D0B6
:10294000B9F1490F05D0B9F16E0F02D0B9F14E0FB0
:102950001CD13B4601A8009580E85002DDE9121227
:102960006FF002000BF070F8C11CCED10EE0B96917
:1029700012986D1C884781461398761E44F40074A3
:1029800005600F98401C002E0F9016DDB9F1300F36
:10299000EDD0B9F1780F02D0B9F1580F0DD10F98E1
:1029A00001280AD13B46CDE90054DDE91212001F8F
:1029B00002960BF047F8C11CA7D1109989453ED16A
:1029C00044F0800406E01399681CAAF1010A44F45B
:1029D00000740860B9696D1C1298761E884730280B
:1029E0008146F0D02BE01099894505D1200603D40B
:1029F000761E44F0800418E0484607F017FE08B33E
:102A0000761E0DF123018B4544F4007408D2A9F120
:102A100030000BF8010B200607D5AAF1010003E0F6
:102A2000200602D40AF101008246A00502D51399BE
:102A3000681C0860B96912986D1C88478146002E91
:102A4000D1DC53E0002E51DDB9F1650F02D0B9F1B0
:102A5000450F4BD1A00549D5B9696D1C1298761E5A
:102A600024F440748847002E81460CDD2B2804D0C6
:102A7000B9F12D0F07D144F48074B96912986D1C17
:102A80008847761E8146E00501D52D2100E02B21E7
:102A900008F8011BCDF8008021E0761E0DF1390108
:102AA000884544F400740CD2A9F1300010F0FF0006
:102AB00088F8000002D10099884509D908F1010879
:102AC00006E0E00501D51E4801E042F20F708246A3
:102AD000B96912986D1C8847814613980560002ECD
:102AE00004DD484607F0A2FD0028D6D1F969129806
:102AF0008847FF2053468BF8000088F8000000202C
:102B00000A900B9004AA0CA90AA8FFF7ADFDA00536
:102B100002D46FF00100F8E614F0240F12D0E007A1
:102B20001CD13868DDE90A12031D3B600068C0E96A
:102B3000001213E098BA00008ABA00004EB90000F3
:102B4000F1D8FFFF0AA9684607F032FCE00705D17B
:102B50003868009A011D3960006802602846D4E692
:102B600010B508E030F8024B9C4204D10AB10020B5
:102B700010BD012010BD491EF4D2104610BD00004A
:102B800070B50646484231EA00000FD02A20741C76
:102B900000253070FEF790FF0346002253F8250011
:102BA000010F000109292BD957312AE0042913D03C
:102BB00004DC012908D0022904D109E008290FD03A
:102BC000102911D0002070BDFEF776FF00680EE0DE
:102BD000FEF772FF40680AE0FEF76EFF806806E0CD
:102BE000FEF76AFFC06802E0FEF766FF006928B1E1
:102BF00020F0030050F8041C084470BD4CA070BDC8
:102C00003031521C082A04F8011BC9D36D1C052D54
:102C1000C3DB00202070304670BD09B14B0901D0E4
:102C20000020704722B113782A2B02D000F034B86C
:102C3000A6E7AFF300802DE9F0410F468046541C13
:102C400000250026314614F8010BA0F13002092AB4
:102C500003D9A0F16103052B16D8392801D81046F5
:102C600000E05738491C082940EA0616EBD301203A
:102C7000A840384203D0FEF71FFF40F825606D1CC6
:102C8000052DDEDB207810B10020BDE8F08139464B
:102C90004046BDE8F04173E72DE9F0410C46064699
:102CA000154688070AD511462248784409F0D0FD18
:102CB000071EEAD0FEF700FF7F1C4760E0070AD03E
:102CC00029461C4878441A38AFF30080071EDCD030
:102CD000FEF7F2FE076060070AD5294615487844DA
:102CE0003438AFF30080071ECFD0FEF7E5FE8760D3
:102CF00020070AD529460F4878444E3809F0BEFD12
:102D0000071EC2D0FEF7D8FEC760E0060AD52946E6
:102D1000084878446838AFF30080051EB5D0FEF748
:102D2000CBFE056121463046BDE8F04128E7ACE71F
:102D3000430000006AB6000070B516460C46054612
:102D4000FEF706F9036893F80101012804D0185D25
:102D500068B101202C8070BDD3F8030132462146B2
:102D600003F2031303442846BDE8704018474FF0B0
:102D7000FF3070BD70B516460C460546FEF7E8F804
:102D8000036893F80101012806D0FF2C0FD8185DC5
:102D900068B101202C7070BDD3F80701324621467E
:102DA00003F2071303442846BDE8704018474FF06C
:102DB000FF3070BD70B505460C460A2000E06D1C62
:102DC00007F050FC35B128780028F8D102E0641CE7
:102DD00007F048FC14B120780028F8D1BDE8704015
:102DE0000A2007F03FBC000010B5002102A0FFF749
:102DF000E1FF012010BD0000534947414252543ABF
:102E00002041626E6F726D616C207465726D696EC7
:102E10006174696F6E00000000DE00002DE9F04172
:102E20001F46044603260168072A01F4006004DBFC
:102E300008B116A505E016A503E008B115A500E048
:102E400015A521F010002060A069C01EA0610FB17F
:102E5000401EA0612046FEF787F84FB1D4E901215A
:102E600038469047206A401C2062C01C206206E061
:102E7000206AFAE7D4E9012115F8010B9047761E84
:102E8000F8D22046FEF786F8BDE8F0814E414E00AC
:102E90006E616E00494E4600696E66002DE9F0478E
:102EA000814616468AB0354878440DC88DE80D0035
:102EB00032487844801C03AC0DC884E80D0041F60C
:102EC0009B300844372190FBF1F290FBF1F5A5F11E
:102ED000800501FB12041B3C02D56442012000E086
:102EE0000020DFF898A080460027FA44AAF1BE0A25
:102EF0000EE0E0070AD03246684607EB470101239F
:102F00000AEB810100F07CFD8DE8070064107F1C56
:102F1000002CEED1194F7F44AE3F19E0E80715D0E1
:102F200007EB04100DF1180A90E80E008AE80E0075
:102F3000C068F04201D1981908903246012306A9D1
:102F400003A800F05DFD03AB83E807006D10641C6F
:102F5000002DE3D14FF0010332466946B8F1000F6E
:102F600003A802D000F022FD01E000F049FDC9E90C
:102F70000001C9F808200AB0BDE8F087ACAF000036
:102F800010B5FEF79DFD006810BD10B50446FEF7B4
:102F900097FD046010BD00002DE9FF4F1F464FF064
:102FA0003C0987B04FF00042DDE9141001F101083F
:102FB000DDF858A002EA40500390002005908346B7
:102FC000054604460490B969461E08988847AAF148
:102FD000010A0290BAF1000F3BDD02982E2815D0AD
:102FE0001021FFF779F900282EDB4FF0010B05992E
:102FF000014317D0B9F1000F0BDB4A46C11700F0AF
:1030000003FA05430C43A9F1040905E001200490EB
:103010000BE008B145F0010501200590049820B9A6
:10302000361D02E0049800B1361FB969089808F10E
:1030300001088847BBF1000FAAF1010A0290C9D02C
:103040000999C1F80080C5E70298702808D0502877
:1030500006D0F96908988847BBF1000F14D04FE0FB
:10306000002002900120BBF1000F049009D0B96943
:10307000089808F101088847AAF10109B9F1000F81
:1030800007DCF969089888476FF001000BB0BDE8CC
:10309000F08F2B2804D02D280CD14FF0FF30049056
:1030A000B969089808F101088847A9F10109B9F13F
:1030B000000FE6DD411CE4D00A21FFF70DF90028DE
:1030C000DFDB029908F1010801EB810100EB41000F
:1030D0000290B969089888470A21FFF7FDF8099A14
:1030E000A9F10109B9F1000FC2F8008001DD002843
:1030F000E7DAF969089888470499029800FB0166A5
:1031000055EA040004D004F04041090002D006E072
:10311000039898E0A40044EA9574AD00B61E04F04C
:103120000041080002D16D196441761E159810F017
:10313000240F03D04FF00B095C4803E04FF028093F
:103140006FF07D008246564507DAAAEB06018944F6
:10315000B9F1410F01DD4FF0410901200021A9F132
:10316000010200F051F9024628400B462140084375
:1031700001D0012100E00021501E029143F1FF31F6
:1031800028402140084301D0012000E0002002999E
:10319000834651EA0B014FD0002108464FF0000052
:1031A000039900F4400039B100EB80004FF4400176
:1031B00000EBD07001EA60008015012802DD4FF0BD
:1031C000FF3000E013D0401C36D0029860B3BBF152
:1031D000000F0CD14A460120002100F015F92840CB
:1031E0002140084301D0012000E00020E0B101208F
:1031F0004A46002100F008F9034640190A46614199
:103200002D1A8C4111D3B9F1400F09DD159810F03A
:10321000240F02D0AAF1340603E0AAF1170600E059
:10322000761C00254FF0004406E05B1E42F1FF32A1
:1032300020EA030521EA0204CAF10100B04206DADD
:103240001B49039808430190002000900EE0039A68
:10325000C4F3D321E80A0A43164940EA44500A431A
:103260003146CDE90002684607F0D6F9159810F00E
:10327000240F0BD01598C00715D13868DDE900126E
:10328000031D3B600068C0E900120CE002A869461B
:1032900007F08EF81598C00705D13868029A011D0D
:1032A0003960006802604046F0E6000002FCFFFF63
:1032B0000000F07F0000F03F2DE9FF4F92461D46D1
:1032C00085B04FF00041DDE9124BDDE914727F1E3D
:1032D00001EA4B50414940F0FF4940EA0108002112
:1032E00022F020004928049102D04E2828D04CE03A
:1032F0003BA0012607C88DE80700A9690698641C51
:1033000088477F1E014606D41DF8060018B121F03B
:10331000200181420BD0E96906988847032E34D0FA
:10332000082E32D06FF0010009B0BDE8F08F761C96
:10333000032E01D0082EE0D1601CCAF80000DCE7A3
:10334000A9690698641C88477F1E2AD420F02000B3
:10335000412826D1A9690698641C88477F1E20D47D
:1033600020F020004E281CD1A9690698641C8847CB
:103370007F1E48F4002849F48009CAF8004001D4AF
:10338000282806D0E969069888475FEACB7012D0F2
:1033900022E0A9690698641C88477F1E01D4002892
:1033A00003DAE96906988847BCE72928F1D1641C4B
:1033B000CAF80040E9E71BF0240F07D028680499F9
:1033C000031D2B600068C0E9001805E02868021D95
:1033D0002A600068C0F800902046A5E70000F07F52
:1033E000494E46494E495459000000002DE9F0412C
:1033F00016461F460C46851B02E02846B847AD1B03
:10340000641EFAD2BDE8F081B2F120030AD5C2F100
:10341000200301FA02F120FA03F300FA02F041EA74
:103420000301704700FA03F14FF0000070475FEAB4
:10343000400C08BF91F0000F4FEA8C234FEAC122E5
:1034400043EA51514FEA1C5018BF00F5F0404FEAD3
:10345000300018BF41F000415FEA6C5C00F0298049
:10346000BCF1FF3F08BF40F080407047130C06BF1F
:1034700012044FF0100C4FF0000C130E04BF120298
:103480000CF1080C130F04BF12010CF1040C930F84
:1034900004BF92000CF1020CD30F04BF52000CF1D8
:1034A000010C11464FF00002A0F11F00A0EB0C0030
:1034B000704711F0004F08BF704731F000413FF4F2
:1034C000D5AF0B0C06BF09044FF0100C4FF0000CE9
:1034D0000B0E04BF09020CF1080C0B0F04BF09010D
:1034E0000CF1040C8B0F04BF89000CF1020CCB0F04
:1034F00004BF49000CF1010CCCF12003A0EB0C003F
:1035000022FA03F302FA0CF241EA030100F101008E
:10351000704720F07F4C80EA030023F07F47ACEB3C
:10352000070303F57C5300F0004003F1FF032DE98E
:1035300080494FEA154B09B44FEA144325EA0B4E74
:1035400024EA03480FF2042606EB132749083E78C5
:103550005FEA320203FB0667C7F5000707FB06F6C2
:103560004FEA54374FEAD64606F1020607FB066CCF
:10357000CCF1005C4FEA1C472CEA074C07FB06F431
:103580000CFB06F504EB15464FEA961634BF0020F7
:103590004FF000404FEAD13706FB07FC4FEA1C4CC6
:1035A0000CFB0BF7D21B03FB0CF761EB07010CFBC9
:1035B0000EF7B0EB074072EB17420CFB08F734BF75
:1035C000A2EB0742B2EB074261EB17414FEA0C4412
:1035D0004FEA910706FB07FC4FEA1C4C0CFB0BF76C
:1035E000B0EBC74072EB573203FB0CF734BFA2EBD2
:1035F000C742B2EBC74261EB57310CFB0EF7B0EBA1
:10360000C70072EB57720CFB08F734BFA2EBC7027E
:10361000B2EBC70261EB5771039F4FEA816141EA48
:10362000921104EBCC044FEAD1374FEA826206FBD9
:1036300007FC42EA90124FEA80604FEA1C4C0CFBF8
:103640000BF7D21B03FB0CF761EB07010CFB0EF72A
:10365000B0EB074072EB17420CFB08F734BFA2EB4C
:103660000742B2EB074261EB17414FEA8C554FEA34
:10367000910704EB9C2406FB07FC4FEA1C4C0CFB57
:103680000BF7B0EBC74072EB573203FB0CF734BFBC
:10369000A2EBC742B2EBC74261EB57310CFB0EF70E
:1036A000B0EBC70072EB57720CFB08F734BFA2EB0C
:1036B000C702B2EBC70261EB577115EB4C254FEA1D
:1036C000816141EA92114FEA82624FEAD13742EAC0
:1036D000901206FB07FC44F100044FEA80604FEAB9
:1036E0001C4C0CFB0BF7D21B03FB0CF761EB070127
:1036F0000CFB0EF7B0EB074072EB17420CFB08F720
:1037000034BFA2EB0742B2EB074261EB174115EB66
:103710001C154FEA813141EA92414FEA823242EA76
:1037200090424FEA80304FEA0C7644F1000448EAB8
:1037300003434EEA0B484FF0000EB2EB080C71EB5E
:10374000030724BF624639464EEB0E0E4FF0000BC6
:103750000018524149414BEB0B0BB2EB080C71EBDB
:1037600003077BF1000B24BF624639464EEB0E0E79
:103770004FF0000B0018524149414BEB0B0BB2EBE1
:10378000080C71EB03077BF1000B24BF624639463E
:103790004EEB0E0E51EA020718BF46F0010616EB7B
:1037A0000E7655F1000254F1000103D5BDE8890100
:1037B000BDE80088BDE88901BDE80048B61952415E
:1037C00041EB0101A3F10103704780807F7E7D7C86
:1037D0007B7A7978777676757473727171706F6EA3
:1037E0006E6D6C6C6B6A6A6968686766666564644E
:1037F000636362616160605F5F5E5E5D5D5C5C5BD8
:103800005B5A5A5959585857575656555555545446
:10381000535352525251515050504F4F4F4E4E4DA4
:103820004D4D4C4C4C4B4B4B4A4A4A4949494848F0
:103830004847474747464646454545444444444330
:1038400043434342424242414141000046EA064668
:10385000A3F570534FEA164646EA42564FEAD22283
:1038600042EA415210B54FEAD121A3F1010300F021
:103870002FF820F0004000F1020C00F0004701EBAF
:1038800000501146BCF5006F40EA070000D210BDA1
:10389000BAF1000F0AD01CB503B44FF004004FF08A
:1038A00004014FF000000FBCBDE810404FF00001D4
:1038B000BBF1010FB9BF04484FF0FF3103480021AD
:1038C00040EA070010BD00BFFFFFEF7F0000F07F60
:1038D000002B9C4630D477002BD01CB54FEA37071D
:1038E00003B44FF010004FF01001BAF1000F06D0F2
:1038F000BCF1000FDCBF40F0080040F008014FF0C1
:1039000000000FBCBDE810400BF1010BBBF1010F33
:1039100008BF5FEA170722BF12F1010211F101018E
:103920004FF0004143F1000300F0004043EA000083
:103930007047F9D35708D0E746EA064613F1400F1F
:103940004FEA16461FDD13F1200FDFBF16430A466C
:10395000002120335B42BED0C3F1200746EA064671
:1039600002FA07F74FEA164646EA0706C3F12007B0
:1039700022FA03F201FA07F721FA03F14FF00003EC
:1039800042EA0702A7E746EA020646EA06464FEA87
:10399000164646EA0106BCBF46EA0646360C4FF01C
:1039A00000034FF000024FF0000194E72DE9804C36
:1039B0009A46934670B491E8380007C831EA400C43
:1039C00048BF34EA430C03D5FFF7A3FDFFF780FFA0
:1039D000F0BCBDE8008C2DE9804C9A46934670B44B
:1039E00091E8380007C831EA400C48BF34EA430C7C
:1039F00003D5FFF78EFDFFF729FFF0BCBDE8008C73
:103A00002DE9804C9A46934670B491E8380007C877
:103A100010F0804F08BF13F0804F03D100F01AF868
:103A2000FFF756FFF0BCBDE8008C2DE9804C9A46AC
:103A3000934670B491E8380007C810F0804F08BF73
:103A400013F0804F03D100F005F8FFF7FFFEF0BC44
:103A5000BDE8008C20F07F4780EA030023F07F4C14
:103A600007EB0C03A3F57C5300F00040A3F1FE0329
:103A700092F0000F00F0B38095F0000F00F0778017
:103A80002DE901494FEA11404FEA144621EA004866
:103A900000FB06FC24EA064708FB06F607FB08F8CD
:103AA00000FB07F718EB06484CEB164C4FEA124B9D
:103AB00018EB07484FEA15464CEB174022EA0B4E2D
:103AC0000BFB06FC25EA06470EFB06F607FB0EFE7F
:103AD0000BFB07F71EEB064E4CEB164C4FF00006A7
:103AE0001EEB074E4CEB174B18EB0B0840F1000098
:103AF00018EB0E0B58EB000840F100008F1A4FF046
:103B000000013CBFC943661B14BFB5EB040C002188
:103B10003CBFC943F61B4FEA17444EEA8E0E27EA14
:103B200004454FEA1C4704FB07622CEA074C05FBDF
:103B300007F70CFB05F604FB0CFC16EB074642EB03
:103B4000174216EB0C4642EB1C421BEB060658EBE9
:103B50000202414146EA9E0601D5BDE80189B61937
:103B6000524141EB0101A3F10103BDE801894FEA94
:103B700014454FEA114724EA054621EA074C05FBA4
:103B800007F406FB07F70CFB06F105FB0CFC11EB39
:103B9000074144EB17444FEA124711EB0C4144EB49
:103BA0001C4422EA074C05FB07F206FB07F70CFB57
:103BB00006F605FB0CFC16EB074642EB174216EB2C
:103BC0000C4642EB1C456A1854F1000148BF70478F
:103BD000B619524141EB0101A3F10103704795F081
:103BE000000F37D04FEA11424FEA144721EA02464C
:103BF00024EA074C02FB07F106FB07F70CFB06F46F
:103C000002FB0CFC14EB074441EB17414FEA15474C
:103C100014EB0C4441EB1C4125EA074C02FB07F571
:103C200006FB07F70CFB06F602FB0CFC16EB07463F
:103C300045EB174516EB0C4645EB1C42121951F1AA
:103C4000000148BF7047B619524141EB0101A3F191
:103C5000010370474FEA14454FEA114724EA05462D
:103C600021EA074C05FB07F106FB07F70CFB06F200
:103C70004FF0000605FB0CFC12EB074241EB17412D
:103C800012EB0C4251EB1C4148BF7047921841EBBC
:103C90000101A3F10103704738B504466846AFF34C
:103CA00000800146204609F0DBF838BD10B5044617
:103CB0000223882202490348FCF75EFE10BD000083
:103CC000C98900085809002000B52DED028B85B088
:103CD0008448C08CB0F5787F7DD18248008DC028A3
:103CE00005D19FED810A814805F072FA04E09FED4D
:103CF000800A7E4805F06CFA7A48808CB0F5AE6F89
:103D000003DD00207B49086007E07648808CB0F531
:103D1000147F02DA5A2077490860764890ED000A4D
:103D2000B8EEC00A744805F053FA6E48408CB0F5FE
:103D3000AE6F05DD9FED710A714880ED000A0FE05E
:103D40006848408CB0F5147F05DA9FED6E0A6C4828
:103D500080ED000A04E09FED6C0A694880ED000ADE
:103D6000674890ED000ABDEEC00A10EE101A6748D1
:103D700004F09AFD0120664981F82400654981F824
:103D80002400654981F82400644981F824005548DD
:103D9000C08BA0F5787000EB8000400000EE100AA8
:103DA000B8EEC00A5E4880ED000A4E48008CA0F5CF
:103DB000787000EB8000400000EE100AB8EEC00AF8
:103DC000584880ED000ADFED588A9FED578A38EE9B
:103DD000880A564800E071E0D0ED000A20EE200A83
:103DE0009FED531AC0EE010A4E4890ED000A4C4870
:103DF00090ED001A30EE010A30EE600A8DED010AF6
:103E000038EE880A4948D0ED000A60EE200A9FED9E
:103E1000481A80EE810A4348D0ED000A404890EDF0
:103E2000001A70EEC10A30EEC00A8DED020A38EEBB
:103E3000880A3E48D0ED000A60EE200A9FED3C1A49
:103E400080EE810A3748D0ED000AF1EE600A34486E
:103E500090ED001A70EEC10A30EEC00A8DED030A33
:103E600038EE880A3148D0ED000A60EE200A9FED56
:103E7000301A80EE810A2B48D0ED000AF1EE600A7C
:103E8000274890ED001A70EE810A30EEC00A8DEDE1
:103E9000040A9DED020A1E4880ED140A9DED010AF8
:103EA0001C4880ED140A9DED040A1B4880ED140A9D
:103EB0009DED030A084680ED140A0FE00020144926
:103EC00081F82400134981F82400134981F8240063
:103ED000124981F824000D4804F0E0FC05B0BDEC67
:103EE000028B00BDF008002000007042C8050020D1
:103EF000000020422C000020BC05002000401C4790
:103F00002800002000401CC700000000D40500204D
:103F1000E405002068060020EC0600207007002061
:103F2000340000203000002000002A433800002028
:103F3000333365427047000010B5044805F075F949
:103F40000349B0FBF1F00349086010BD3C000020BC
:103F500040420F005800002010B50120374908707A
:103F60003749384805F055F900223749374805F0F8
:103F7000AFF900223649374805F0AAF91022364930
:103F8000364804F049FE08223549364804F044FE1C
:103F90004FF480623449354804F03EFE0122344932
:103FA000344804F039FE01222F49334804F034FE2E
:103FB00010223249324804F02FFE20222F49314886
:103FC00004F02AFE40222D492F4804F025FE01224C
:103FD00023492E4804F020FE102221492C4804F0E9
:103FE0001BFE042222492B4804F016FE40222049E1
:103FF000294804F011FE02221949284804F00CFE59
:1040000020221749264804F007FE20221849254897
:1040100004F002FE80221649234804F0FDFD04222C
:104020000F49224804F0F8FD4FF40072104920486F
:1040300004F0F2FD04F030F910BD0000540000203F
:10404000740500203C000020C8020020440000202D
:104050000C0300204C00002000000240000800205B
:10406000000802400C08002000140240180800203C
:1040700000200240240800203008002000100240E8
:104080003C08002048080020540800206008002058
:104090006C08002078080020840800209008002088
:1040A0009C080020A8080020B4080020C0080020B8
:1040B000CC08002000BFFEE710B5024800F04BFB23
:1040C00010BD00004801002010B5024800F043FB7D
:1040D00010BD00004801002010B5024800F03BFB75
:1040E00010BD00007001002010B5024800F033FB45
:1040F00010BD00007001002010B5024800F0E2FE83
:1041000010BD0000F403002010B5024800F0DAFEF4
:1041100010BD00005404002010B5024800F0D2FE8B
:1041200010BD0000B404002010B5024800F0CAFE23
:1041300010BD00009403002010B5024800F0C2FE3C
:1041400010BD00001405002001460878103818231F
:10415000B0FBF3F20848805CC865032A05D90868FB
:104160006FF30900001D886503E008686FF309001C
:104170008865886D70470000E8DA00080146002075
:104180008A6A8B69CBB932B1012A0DD0022A03D0D9
:10419000032A10D10EE000BFCB6A03F08073B3F1A5
:1041A000807F00D1012007E0CB6AB3F1C07F00D14E
:1041B000012001E000E000BF34E08B69B3F5005F4F
:1041C0001AD132B1012A07D0022A03D0032A11D111
:1041D0000AE000BF01200EE0CB6A03F08073B3F168
:1041E000807F00D1012006E0CB6AB3F1C07F00D10F
:1041F000012000E000BF15E032B1012A05D0022AFB
:1042000004D0032A0CD103E000BF00BF012008E066
:10421000CB6A03F08073B3F1807F00D1012000E00E
:1042200000BF00BF704730B50468246824F48024C0
:1042300005682C60046863608468402C04D10468BD
:10424000A2600468E16003E00468A1600468E260C1
:1042500030BD704710B5012000F01EF8012001F0BC
:1042600011F810BD10B54FF4806000F015F84FF450
:10427000806001F007F810BD10B5082000F00CF8C0
:10428000082000F0FFFF10BD10B5102000F004F86A
:10429000102000F0F7FF10BD10B50446204604F0D2
:1042A00085FC10BD72B600BFFEE710B5024692F85D
:1042B0002030012B01D0022B1CD101F0010028B1CC
:1042C0001068806840F080001468A06001F002006F
:1042D00028B11068806840F400401468A06001F0C4
:1042E000040028B11068806840F400001468A060E1
:1042F000002010BD506A40F4802050620120F8E791
:1043000010B5024692F82030012B01D0022B06D1C5
:1043100010684069084314686061002010BD506A4D
:1043200040F4802050620120F8E7F0B504460D46C5
:104330001E4694F8207020688368A86800B900E0E1
:1043400000BF012F01D0022F7CD103F0806030B973
:1043500003F0006018B903F08050002873D0C3F355
:104360000161022905D9606A40F400006062012001
:10437000F0BD012088403060A86860B9B5F800C081
:10438000E86840EA4C5C206800F5C07000EB011062
:10439000C0F800C00FE0D5E901C040EACC00D5F874
:1043A0000CC040EA0C00D4F800C00CF5C07C0CEB4B
:1043B000011CCCF80000D5F810C0206800F5C070D2
:1043C00000EB0110C0F804C0287D01280ED1206840
:1043D00000F5C07000EB0110406840F4807C20685C
:1043E00000F5C07000EB0110C0F804C0D0790006E1
:1043F00092F806C040EA0C4092F805C040EA0C2C46
:1044000010794CEA000C206800F5C07000EB011038
:10441000C0F80CC0D078000692F802C040EA0C4008
:1044200092F801C040EA0C2092F800C040EA0C006B
:10443000D4F800C00CF5C07C0CEB011CCCF80800D3
:10444000206801E016E00FE000F5C07000EB0110FD
:10445000006840F0010C206800F5C07000EB01100E
:10446000C0F800C0002083E7606A40F4001060627A
:1044700001207DE7606A40F480206062012077E7D8
:10448000F0B504460A46216894F82050012D01D069
:10449000022D7ED1424901F50071086840F001000B
:1044A0000860086820F47C5008600868566A40EA92
:1044B00006200860107D00F01F06012000FA06F3B8
:1044C000C8699843C861A1F50071D069C8B9D1F82D
:1044D0000C029843C1F80C02908880B2968940EA99
:1044E000064601F51070576940F83760108880B2B1
:1044F000168940EA064601F51070576900EBC700BF
:104500004660D069012819D1D1F80C021843C1F8CE
:104510000C02908880B2168840EA064601F51070B9
:10452000576940F83760908980B2168940EA06469C
:1045300001F51070576900EBC7004660906928B913
:10454000D1F804029843C1F8040204E0D1F804024F
:104550001843C1F80402106928B9D1F8140298432D
:10456000C1F8140204E0D1F814021843C1F814028F
:10457000106A012804D1D1F81C021843C1F81C02AA
:10458000D1F8000220F00100C1F800020020F0BDC7
:10459000FFE7606A40F4802060620120F7E70000D6
:1045A00000640040704770B5044694F82050012D17
:1045B00001D0022D7DD151B92068C06800F0030000
:1045C00080B9606A40F400106062012070BD20680C
:1045D000006900F0030028B9606A40F400106062CE
:1045E0000120F3E7206800F5D87000EB01100068A7
:1045F00000F004009060906840B9206800F5D87021
:1046000000EB01100068400D106007E0206800F525
:10461000D87000EB01100068C0085060206800F5F9
:10462000D87000EB0110006800F00200D060206834
:1046300000F5D87000EB0110406800F00F00106129
:10464000206800F5D87000EB0110406800F47F404E
:10465000000A9061206800F5D87000EB01104068F6
:10466000000C5061206800F5D87000EB01108068E4
:104670001870206800F5D87000EB0110806800F415
:104680007F40000A5870206800F5D87000EB0110D8
:10469000806800F47F00000C9870206800F5D870E6
:1046A00000EB01108068000ED870206800F5D8700B
:1046B00000E02FE000EB0110C0681871206800F5E1
:1046C000D87000EB0110C06800F47F40000A5871F8
:1046D000206800F5D87000EB0110C06800F47F007E
:1046E000000C9871206800F5D87000EB0110C068CC
:1046F000000ED87131B92068C06840F020002668EB
:10470000F06005E02068006940F020002668306114
:1047100000205BE7606A40F480206062012055E77A
:104720000146002091F82020012A01D0022A11D14F
:104730000B689B6803F0806303B1401C0B689B68A7
:1047400003F0006303B1401C0B689B6803F08053C7
:1047500003B1401C70472DE9F05F04460025206836
:1047600046692068D0F80490206887682068D0F8EF
:104770000CA02068D0F810B02068D0F8188006F09F
:104780000100002855D007F00100C0B101202168C8
:10479000886007F0020018B1204600F0C0FA0EE071
:1047A00007F0040010B145F4006508E007F00800C8
:1047B00010B145F4805502E0204600F0AFFA07F44E
:1047C0008070C8B14FF480702168886007F4007071
:1047D00018B1204600F0A5FA0EE007F4806010B191
:1047E00045F4005508E007F4006010B145F4804539
:1047F00002E0204600F094FA07F48030C8B14FF48C
:1048000080302168886007F4003018B1204600F03D
:104810008AFA0EE007F4802010B145F4004508E064
:1048200007F4002010B145F4803502E0204600F086
:1048300079FA06F0080038B10AF0100020B145F40A
:10484000007510202168C86006F0040040B10AF02D
:10485000080028B108202168C860204600F01EFA30
:1048600006F0020038B12068C06800F0030010B103
:10487000204600F014FA06F0400038B10BF01000AA
:1048800020B145F4806510202168086106F0200001
:1048900040B10BF0080028B10820216808612046CB
:1048A00000F004FA06F0100038B12068006900F04A
:1048B000030010B1204600F0FAF906F4003040B1D0
:1048C00009F0100028B1102021684860204600F04F
:1048D000F5F906F4803040B109F0080028B108204D
:1048E00021684860204600F01FFA06F4004088B3B3
:1048F00009F0040078B306F4807020B108F00100DC
:1049000008B145F0010506F4007020B108F002007E
:1049100008B145F0020506F4806020B108F00400FB
:1049200008B145F0040506F40060A0B108F070007D
:1049300088B108F07000402817D006DC10280BD092
:1049400020280CD0302819D10CE0502810D0602835
:1049500014D110E01DE019E045F008050FE045F026
:1049600010050CE045F0200509E045F0400506E0A3
:1049700045F0800503E045F4807500E000BF00BF0E
:104980002068806920F07000216888610420216817
:1049900048602DB1606A284360622046FFF702FE3E
:1049A000BDE8F09F70B504460CB9012070BD94F8C5
:1049B000200010B9204600F0AFF82068006840F0F1
:1049C00001002168086000F079FD05460DE000F067
:1049D00075FD401B0A2808D9606A40F40030606207
:1049E000052084F820000120E0E72068406800F0FE
:1049F00001000028EBD02068006820F00200216848
:104A0000086000F05BFD05460DE000F057FD401B1F
:104A10000A2808D9606A40F400306062052084F8F2
:104A200020000120C2E72068406800F00200002852
:104A3000EBD1207E012806D12068006840F080007C
:104A40002168086005E02068006820F08000216887
:104A50000860607E012806D12068006840F04000B0
:104A60002168086005E02068006820F040002168A7
:104A70000860A07E012806D12068006840F0200070
:104A80002168086005E02068006820F020002168A7
:104A90000860E07E012806D12068006820F0100040
:104AA0002168086005E02068006840F01000216877
:104AB0000860207F012806D12068006840F00800C7
:104AC0002168086005E02068006820F0080021687F
:104AD0000860607F012806D12068006840F004006B
:104AE0002168086005E02068006820F00400216863
:104AF0000860D4E902010843216908436169084359
:104B00006168491E08432168C86100206062012075
:104B100084F82000002049E710B586B0044614212F
:104B200001A8FBF7EDFE57492068884249D1564855
:104B30000068401C544908600846006801280FD1ED
:104B400000BF002000905148006840F000704F49BD
:104B500008600846006800F00070009000BF00BFC9
:104B600000BF0020009049481038006840F008005D
:104B70004649103908600846006800F008000090B7
:104B800000BF00BF0320019002200290002003908C
:104B9000032004900920059001A93D4800F080FB06
:104BA00000220521142000F039FD142000F026FD1C
:104BB00000220521152000F031FD152000F01EFD1A
:104BC0005DE034492068884259D100BF0020009040
:104BD0002E48006840F080602C4908600846006854
:104BE00000F08060009000BF00BF27480068401CB4
:104BF000254908600846006801280FD100BF002041
:104C000000902248006840F0007020490860084683
:104C1000006800F00070009000BF00BF00BF0020DF
:104C200000901A481038006840F002001749103907
:104C300008600846006800F00200009000BF00BF56
:104C40004FF4405001900220029000200390032076
:104C500004900920059001A90F4800F021FB0022D3
:104C60000521402000F0DAFC402000F0C7FC0022C3
:104C70000521412000F0D2FC412000F0BFFC06B02D
:104C800010BD0000006400400C00002040380240CD
:104C9000000C02400068004000040240704710B55C
:104CA00004460021204603F0A5FC10BD704710B556
:104CB00004460121204603F09DFC10BD704770B5ED
:104CC000044694F82000012822D1022084F8200014
:104CD0002068006820F001002168086000F0EEFB09
:104CE00005460DE000F0EAFB401B0A2808D9606A7F
:104CF00040F400306062052084F82000012070BD7F
:104D00002068406800F001000028EBD16062F6E7FF
:104D1000606A40F4002060620120F0E7704770474D
:104D20007047704770477047704710B504460CB91C
:104D3000012010BD607920B900202071204600F0CC
:104D400005F8012060710020F3E7000008B50A4A69
:104D5000016891420FD100BF002100910749096805
:104D600041F48051054A11601146096801F48051EF
:104D7000009100BF00BF08BD003002403038024043
:104D800070B50446A56D00F099FB064694F8350011
:104D9000022808D08020606500BF002084F834001D
:104DA00000BF012070BD2068006820F01600216857
:104DB00008602068406920F0800021684861206C0C
:104DC00008B9A06C28B12068006820F008002168AC
:104DD00008602068006820F001002168086010E089
:104DE00000F06CFB801B05280BD920206065032098
:104DF00084F8350000BF002084F8340000BF032091
:104E0000D0E72068006800F001000028E8D194F89D
:104E10005C103F208840A860012084F8350000BF66
:104E2000002084F8340000BF00BFBBE7014691F8C2
:104E30003500022803D080204865012070470520F6
:104E400081F835000868006820F001000A681060E9
:104E50000020F3E770B504460CB9012070BD94F84A
:104E60003500022800D1F9E72068006820F0010031
:104E70002168086000202168086021684860216876
:104E800088602168C8602168086121202168486124
:104E90002046FFF759F905460020E063206460646E
:104EA000A064E064206594F85C103F208840A8600E
:104EB0000020606584F8350000BF84F8340000BF2E
:104EC00000BFCBE7F8B50446002000908C4800688E
:104ED0004FF41651B0FBF1F7A56D2E6894F85C10F5
:104EE00008208840304098B12068006800F0040035
:104EF00070B12068006820F004002168086094F810
:104F00005C1008208840A860606D40F0010060657A
:104F100094F85C1001208840304068B120684069F6
:104F200000F0800040B194F85C1001208840A86037
:104F3000606D40F00200606594F85C1004208840C9
:104F4000304068B12068006800F0020040B194F879
:104F50005C1004208840A860606D40F0040060652B
:104F600094F85C1010208840304078B320680068C6
:104F700000F0080050B394F85C1010208840A8603E
:104F80002068006800F4802080B12068006800F488
:104F9000002028B9206CC8B12046216C884715E054
:104FA000A06C98B12046A16C88470FE0206800688B
:104FB00000F4807028B92068006820F0080021689B
:104FC0000860206C10B12046216C884794F85C1072
:104FD000202088403040002865D02068006800F01C
:104FE000100000285FD094F85C1020208840A86052
:104FF00094F83500052828D12068006820F01600B4
:10500000216808602068406920F0800021684861BC
:10501000206C08B9A06C28B12068006820F0080056
:105020002168086094F85C103F208840A860012047
:1050300084F8350000BF002084F8340000BF206DE4
:1050400010B12046216D8847F8BD2068006800F443
:10505000802080B12068006800F4002028B9606CCE
:1050600010B12046616C88471DE0E06BD8B1204646
:10507000E16B884717E02068006800F4807068B929
:105080002068006820F0100021680860012084F882
:10509000350000BF002084F8340000BFE06B10B181
:1050A0002046E16B8847606D38B3606D00F0010009
:1050B000F0B1052084F835002068006820F0010078
:1050C0002168086000BF0098401C0090B84200D9D9
:1050D00005E02068006800F001000028F3D100BF5F
:1050E000012084F8350000BF002084F8340000BFA0
:1050F000E06C10B12046E16C884700BFA4E70000D7
:10510000240000202DE9F0410446002500F0D6F9E6
:10511000074614B90120BDE8F081606A00B100BF04
:10512000022084F8350000BF002084F8340000BF5E
:105130002068006820F00100216808600AE000F0A3
:10514000BDF9C01B052805D920206065032084F81F
:105150003500E0E72068006800F001000028EED18B
:105160002068056821480540D4E901010843E16849
:1051700008432169084361690843A1690843E1695B
:105180000843216A08430543606A042803D1D4E92F
:105190000B0108430543206805602068456925F038
:1051A0000705606A0543606A04280DD1A06A0543BB
:1051B000E06A48B12046FEF7E1FF28B14020606573
:1051C000012084F83500A6E7206845612046FEF7F7
:1051D000BBFF064694F85C103F208840B06000207A
:1051E0006065012084F83500002094E73F8010F0CE
:1051F0002DE9F04704460D4616461F464FF00008BD
:10520000D4F8589000BF94F83400012802D102204D
:10521000BDE8F087012084F8340000BF94F8350021
:10522000012825D1022084F83500002060653B4626
:10523000324629462046FEF7F6FF94F85C103F20E0
:105240008840C9F808002068006840F0160021680E
:105250000860206C28B12068006840F008002168D0
:1052600008602068006840F001002168086006E0DE
:1052700000BF002084F8340000BF4FF00208404611
:10528000C6E7704710B5044604480068204020B1C6
:10529000024804602046FFF7F4FF10BD143C0140B3
:1052A000F8B502460B460025002400200021E0E06E
:1052B000012606FA01F51E6806EA0504AC4274D11F
:1052C0001E7906F00306012E04D01E7906F00306AF
:1052D000022E13D190684F000326BE40B0434F000A
:1052E000DE68BE4030439060506801268E40B04377
:1052F0001E79C6F300168E40304350601E7906F0CA
:105300000306032E09D0D0684F000326BE40B043E9
:105310004F009E68BE403043D0601E7906F0030601
:10532000022E13D1CF0802F1200656F827004E07AF
:10533000F70E0F26BE40B0434F07FF0E1E69BE405A
:105340003043CF0802F1200646F8270010684F00CE
:105350000326BE40B0431E7906F003064F00BE4050
:10536000304310605E6806F44036002E1DD000BF4A
:1053700000260096414E366846F480463F4F3E6018
:105380003E46366806F48046009600BF00BF3C4E9D
:105390008F0856F827008E07370F0F26BE40B04300
:1053A000384EB24202D100262EE061E0364EB242C3
:1053B00001D1012628E0354EB24201D1022623E078
:1053C000334EB24201D103261EE0324EB24201D129
:1053D000042619E0304EB24201D1052614E02F4ECA
:1053E000B24201D106260FE02D4EB24201D107266E
:1053F0000AE02C4EB24201D1082605E02A4EB24204
:1054000001D1092600E00A268F073F0FBE40304336
:105410001B4E8F0846F82700244E3068A0435E6874
:1054200006F4801606B12043204E3060361D3068E9
:10543000A0435E6806F4001606B120431B4E361DDD
:1054400030601A4E361F3068A0435E6806F400369E
:1054500006B12043154E361F3060361F3068A0431A
:105460005E6806F4803606B12043104E083E306078
:10547000491C1029FFF41CAFF8BD0000443802405D
:1054800008380140000002400004024000080240C9
:10549000000C0240001002400014024000180240BC
:1054A000001C02400020024000240240083C014051
:1054B0000AB1816101E00B04836170470148006813
:1054C000704700001800002003480068034909786D
:1054D000084401490860704718000020200000209F
:1054E00010B50D48006840F400700B49086008468C
:1054F000006840F4806008600846006840F48070EE
:105500000860032000F0C8F8052000F007F800F05C
:105510004BF8002010BD0000003C024070B588B080
:10552000044600250026002221462D2000F076F8B2
:105530002D2000F063F800BF00200190164800689D
:1055400040F48070144908600846006800F48070D8
:10555000019000BF00BF02A903A800F073F900F09A
:1055600099F945000D48B5FBF0F0461E0C480D4971
:10557000086040F2E7310B48C160466000210161DC
:10558000816000F0DDFC20B9064800F04DFD08B058
:1055900070BD0120FBE700004038024040420F0090
:1055A000002000407405002008B500BF00200090D6
:1055B0001148006840F480400F49086008460068C0
:1055C00000F48040009000BF00BF00BF00200090AA
:1055D000081F006840F08050091F086008460068F6
:1055E00000F08050009000BF00BF00220F21901EED
:1055F00000F014F808BD0000443802400146084697
:10560000002809DB00F01F0301229A4043099B0098
:1056100003F1E023C3F8002100BF70472DE9F05FDC
:1056200080460D461646002704F05AFD07463946C7
:105630002A46334601F00700C0F1070ABAF1040F09
:1056400002D94FF0040A01E0C0F1070AD14600F187
:10565000040ABAF1070F02D24FF0000A01E0A0F1EC
:10566000030AD4464FF0010A0AFA09FAAAF1010A1C
:105670000AEA020A0AFA0CFA4FF0010B0BFA0CFBC9
:10568000ABF1010B0BEA030B4AEA0B04214640463F
:1056900004F02EFDBDE8F09F00BF00F00702064BAE
:1056A00019684FF6FF031940044B0B4343EA0221EC
:1056B000014B196000BF70470CED00E00000FA05D7
:1056C00070B504460D460CB9012070BD58480068FD
:1056D00000F00F00A84209D255490D700846006835
:1056E00000F00F00A84201D00120EEE7207800F082
:1056F000020002281DD1207800F00400042805D102
:105700004C48006840F4E0504A490860207800F0B6
:105710000800082805D14748006840F46040454922
:1057200008604448006820F0F000A168084341493F
:105730000860207800F00100A8B36068012807D154
:105740003C4808380068C0F34040B8B90120BCE7C5
:105750006068022802D06068032807D135480838FD
:105760000068C0F3406048B90120AEE7314808380E
:105770000068C0F3400008B90120A6E72D48006882
:1057800020F00300616808432A490860FFF796FE8D
:10579000064609E0FFF792FE801B41F288318842FD
:1057A00002D9032091E707E02248006800F00C00CE
:1057B0006168B0EB810FEDD11D48006800F00F006B
:1057C000A84209D91A490D700846006800F00F0078
:1057D000A84201D0012078E7207800F004000428D6
:1057E00007D11448006820F4E050E16808431149EB
:1057F0000860207800F00800082808D10D480068EB
:1058000020F46040216940EAC1000A49086000F0C4
:1058100061F808490968C1F30311074A515CC8409F
:105820000649086006480068FFF778FE00204CE74C
:10583000003C024008380240F0DA00082400002052
:105840001C0000200F2202600D4A126802F00302C1
:1058500042600B4A126802F0F0028260084A126845
:1058600002F4E052C260064A126802F46042D208B2
:105870000261044A126802F00F020A6070470000D9
:1058800008380240003C02400148006870470000B0
:105890002400002000B5FFF7F7FF04490968C1F3B1
:1058A0008221034A515CC84000BD00000838024014
:1058B00000DB000800B5FFF7E7FF04490968C1F302
:1058C0004231034A515CC84000BD00000838024024
:1058D00000DB00082DE9F047002400250026A14642
:1058E0002548006800F00C0020B1042805D00828E5
:1058F0003AD105E0DFF8849039E0DFF8849036E0B3
:105900001D48001F006800F03F041B48001F00688E
:1059100000F4800078B11A481749091F0968C1F3DB
:105920008811A0FB01700146224600233846FAF791
:10593000ABFD05460EE011480F49091F0968C1F388
:105940008811A0FB01700146224600233846FAF771
:105950009BFD05460848001F0068C0F30140401C3D
:105960004600B5FBF6F902E0DFF8109000BF00BF7B
:105970004846BDE8F0870000083802400024F400E3
:10598000001BB700F8B504460CB90120F8BD20781B
:1059900000F00100002874D0F948006800F00C0005
:1059A00004280DD0F648006800F00C00082813D138
:1059B000F348001F006800F48000B0F5800F0BD1A1
:1059C000EF4808380068C0F34040002859D06068AC
:1059D000002856D10120D9E700BF6068B0F5803FAC
:1059E00008D1E7480838006840F48030E4490839B5
:1059F00008601EE06068B0F5A02F0DD1E0480838BF
:105A0000006840F48020DE490839086008460068D4
:105A100040F4803008600CE0D9480838006820F471
:105A20008030D749083908600846006820F4802093
:105A3000086000BF606890B1FFF740FD054606E0D2
:105A4000FFF73CFD401B642801D903209EE7CC48AA
:105A500008380068C0F340400028F1D011E0FFF79B
:105A60002DFD054606E0FFF729FD401B642801D9FE
:105A700003208BE7C24808380068C0F34040002884
:105A8000F1D1207800F0020002285FD1BC48006804
:105A900000F00C0058B1BA48006800F00C0008286B
:105AA0001CD1B748001F006800F48000B0B9B448AA
:105AB00008380068C0F3400020B1E068012801D038
:105AC000012063E7AE480838006820F0F80021693B
:105AD00040EAC100AA490839086037E0E06800B32D
